:060000000A168A112128F6
:10000C0083120313A20007120C30A1004830A00089
:10001C000130A002031D132814280E28221C1728B7
:10002C0018281928071622181C281D281E28071204
:10003C002208F4000310740C8038A2000130A102D5
:10004C00031D29282A280C2800000800AD30840044
:10005C00903083120313BE000408BF001030C000A0
:10006C003E08840083170008C100BE0A3F088400C4
:10007C00410883138000BF0AC00B3628CD308400A2
:10008C00A030BE000408BF000C30C0003E08840045
:10009C0083170008C100BE0A3F088400410883137F
:1000AC008000BF0AC00B4C2803100030031801302D
:1000BC0083160313D90083120313071866286928C3
:1000CC000A128A15E12D0A168A1522250A128A119E
:1000DC0001300A168A1101200A128A116330F600C7
:1000EC001C30F7000A168A15EC250A128A11023008
:1000FC000A168A1101200A128A114D30F60080303E
:10010C00F7000A168A15EC250A128A116729871836
:10011C00902891286729C8300A168A1577250A1263
:10012C008A11031000300318013083160313DA0010
:10013C003E29DC3083120313B2008130B3008316E6
:10014C0003135A0883120313BE003E07AD3E84000E
:10015C0083130008B400840A0008B5000A30B60006
:10016C000030B7000A168A15F5260A128A11DC30FF
:10017C0083120313A0008130A1004D30BE003E0855
:10018C00A2000A168A1597260A128A118313831263
:10019C00031321082004031DD428D52838298316DD
:1001AC0003135A08063A031DDC28DD281929DC3014
:1001BC0083120313B2008130B300831603132E088D
:1001CC0083120313B501B507831603132D0883128D
:1001DC000313B401B4070A30B6000030B7000A1696
:1001EC008A15F5260A128A11831603175C088312E6
:1001FC000313CD00831603175D0883120313BE008F
:10020C003E08CE00831603175E0883120313BE004C
:10021C003E08CF00831603175F0883120313BE003A
:10022C003E08D0004429DC3083120313B200813025
:10023C00B300831603135A0883120313BE003E0740
:10024C00023EAD3E84000008B400840A0008B500EC
:10025C000A30B6000030B7000A168A15F5260A12C5
:10026C008A11FA280130BE003E0883160313DA0700
:10027C0007305A02031C432944299F2801300A16CF
:10028C008A1101200A128A116330F6001C30F70023
:10029C000A168A15EC250A128A1102300A168A11DE
:1002AC0001200A128A114D30F6008030F7000A1630
:1002BC008A15EC250A128A1183160313D90103142B
:1002CC00D90D8312031307196C296D298D280A1671
:1002DC008A1522250A128A1101300A168A11012068
:1002EC000A128A117630F6001B30F7000A168A15AE
:1002FC00EC250A128A1102300A168A1101200A1200
:10030C008A1171080A168A152C240A128A112F30A8
:10031C000A168A152C240A128A1172080A168A15D2
:10032C002C240A128A11C8300A168A1577250A124B
:10033C008A116F2A8718A329A4296F2AC8300A1694
:10034C008A1577250A128A11031000300318013020
:10035C0083160313DA003D2ABD3083120313B20057
:10036C008030B300831603135A0883120313BE00A4
:10037C003E07CD3E840083130008B400840A0008B5
:10038C00B5000A30B6000030B7000A168A15F526FB
:10039C000A128A11BD3083120313A0008030A10011
:1003AC007130BE003E08A2000A168A1597260A1262
:1003BC008A1183138312031321082004031DE729D8
:1003CC00E829372A831603135A08043A031DEF2928
:1003DC00F029182ABD3083120313B2008030B30009
:1003EC00831603134E0883120313B501B507831646
:1003FC0003134D0883120313B401B4070A30B6007B
:10040C000030B7000A168A15F5260A128A118316CF
:10041C0003133D08F1003E0883120313BE003E088F
:10042C00F200432ABD3083120313B2008030B300B4
:10043C00831603135A0883120313BE003E07023EB1
:10044C00CD3E84000008B400840A0008B5000A30D0
:10045C00B6000030B7000A168A15F5260A128A1162
:10046C000D2A0130BE003E0883160313DA0705304F
:10047C005A02031C422A432AB22901300A168A1155
:10048C0001200A128A117230F6001B30F7000A168E
:10049C008A15EC250A128A1102300A168A110120DB
:1004AC000A128A1171080A168A152C240A128A114A
:1004BC002F300A168A152C240A128A1172080A1671
:1004CC008A152C240A128A1183160313D9010314DA
:1004DC00D90D831203130719742A752AA0290A1639
:1004EC008A1522250A128A1101300A168A11012056
:1004FC000A128A113730F6001C30F7000A168A15DA
:10050C00EC250A128A1102300A168A1101200A12ED
:10051C008A110A168A1591250A128A113C300A167C
:10052C008A152C240A128A11C8300A168A157725C6
:10053C000A128A1102300A168A1101200A128A1133
:10054C00031000300318013083160313DB00682BF3
:10055C008718B12AB22A682BC8300A168A15772553
:10056C000A128A110E300A168A158E270A128A115F
:10057C005A2BFA300A168A1577250A128A11472B3C
:10058C008718C92ACA2A472BC8300A168A15772514
:10059C000A128A11831603135B08DC3E84005A305E
:1005AC0083130002031CDB2ADC2AEA2A2030831284
:1005BC000313BE00831603135B08DC3E8400831216
:1005CC0003133E0880000E2B5B08DC3E8400000801
:1005DC00203A031DF22AF32A012B2F308312031326
:1005EC00BE00831603135B08DC3E840083120313E6
:1005FC003E0880000E2B013083120313BE008316BD
:10060C0003135B08DC3E8400831203133E0880074F
:10061C0002300A168A1101200A128A1103100030C6
:10062C000318013083160313DA005A08DC3E8400E9
:10063C00831300080A168A152C240A128A11013019
:10064C0083120313BE003E0883160313DA070A3025
:10065C005A02031C322B332B1B2B3C300A168A15E7
:10066C002C240A128A11831603135B08C03E0A1647
:10067C008A15F5230A128A1183160313D901031460
:10068C00D90D8312031307194C2B4D2BC62A01309D
:10069C00BE003E0883160313DB075B08C03E0A1638
:1006AC008A15F5230A128A110A30831603135B028A
:1006BC00031C612B622BBF2A0C300A168A158E275D
:1006CC000A128A118312031307196D2B6E2BAE2A93
:1006DC000A168A1522250A128A1101300A168A1165
:1006EC0001200A128A119530F6001C30F7000A1608
:1006FC008A15EC250A128A1102300A168A11012079
:10070C000A128A11CC30F6008130F7000A168A15CD
:10071C00EC250A128A113C300A168A152C240A126E
:10072C008A11C8300A168A1577250A128A110230E6
:10073C000A168A1101200A128A11031000300318BC
:10074C00013083160313DB004F2C8718AE2BAF2B15
:10075C004F2CC8300A168A1577250A128A110E30CA
:10076C000A168A158E270A128A11412CFA300A169B
:10077C008A1577250A128A112E2C8718C62BC72B9F
:10078C002E2CC8300A168A1577250A128A11831660
:10079C0003135B08CC3E84005A3083170002031C01
:1007AC00D82BD92BE72B203083120313BE008316D2
:1007BC0003135B08CC3E8400831203133E088000B5
:1007CC000B2C5B08CC3E84000008203A031DEF2B59
:1007DC00F02BFE2B2F3083120313BE008316031352
:1007EC005B08CC3E8400831203133E0880000B2C64
:1007FC00013083120313BE00831603135B08CC3E37
:10080C008400831203133E08800702300A168A11F3
:10081C0001200A128A11CC30F6008130F7000A163A
:10082C008A15EC250A128A113C300A168A152C24DA
:10083C000A128A11831603135B08C03E0A168A1526
:10084C00F5230A128A1183160313D9010314D90D47
:10085C00831203130719332C342CC32B0130BE0025
:10086C003E0883160313DB075B08C03E0A168A1585
:10087C00F5230A128A110F30831603135B02031C33
:10088C00482C492CBC2B0C300A168A158E270A12C0
:10089C008A11831203130719542C552CAB2B0A16EF
:1008AC008A1522250A128A1101300A168A11012092
:1008BC000A128A118830F6001C30F7000A168A15C5
:1008CC00EC250A128A1102300A168A1101200A122A
:1008DC008A11BC30F6008130F7000A168A15EC2517
:1008EC000A128A113C300A168A152C240A128A1113
:1008FC00C8300A168A1577250A128A1102300A1690
:10090C008A1101200A128A110310003003180130D9
:10091C0083160313DB00362D8718952C962C362D59
:10092C00C8300A168A1577250A128A110E300A1653
:10093C008A158E270A128A11282DFA300A168A1562
:10094C0077250A128A11152D8718AD2CAE2C152D72
:10095C00C8300A168A1577250A128A1183160313D2
:10096C005B08BC3E84005A3083170002031CBF2C6A
:10097C00C02CCE2C203083120313BE00831603131D
:10098C005B08BC3E8400831203133E088000F22CEB
:10099C005B08BC3E84000008203A031DD62CD72CE3
:1009AC00E52C2F3083120313BE00831603135B0850
:1009BC00BC3E8400831203133E088000F22C0130ED
:1009CC0083120313BE00831603135B08BC3E840022
:1009DC00831203133E08800702300A168A11012085
:1009EC000A128A11BC30F6008130F7000A168A15FB
:1009FC00EC250A128A113C300A168A152C240A128C
:100A0C008A11831603135B08C03E0A168A15F52358
:100A1C000A128A1183160313D9010314D90D8312F8
:100A2C00031307191A2D1B2DAA2C0130BE003E08EA
:100A3C0083160313DB075B08C03E0A168A15F523E1
:100A4C000A128A110F30831603135B02031C2F2D1D
:100A5C00302DA32C0C300A168A158E270A128A11F7
:100A6C008312031307193B2D3C2D922C0A168A1561
:100A7C0022250A128A1101300A168A1101200A1243
:100A8C008A11A030F6001B30F7000A168A15EC25E7
:100A9C000A128A1102300A168A1101200A128A11CE
:100AAC005230F6008030F7000A168A15EC250A122F
:100ABC008A11C8300A168A1577250A128A11023053
:100ACC000A168A1101200A128A1103100030031829
:100ADC00013083160313DB00FA2D8718762D772D42
:100AEC00FA2DC8300A168A1577250A128A110E308B
:100AFC000A168A158E270A128A11EC2DFA300A165C
:100B0C008A1577250A128A11D92D87188E2D8F2DCB
:100B1C00D92DC8300A168A1577250A128A11831620
:100B2C0003135B08523E8400393083130002031C0C
:100B3C00A02DA12DAF2D303083120313BE008316D0
:100B4C0003135B08523E8400831203133E0880009B
:100B5C00BC2D013083120313BE00831603135B08F4
:100B6C00523E8400831203133E08800702300A169B
:100B7C008A1101200A128A115230F6008030F700D7
:100B8C000A168A15EC250A128A11831603135B08C0
:100B9C00C03E0A168A15F5230A128A11831603130E
:100BAC00D9010314D90D831203130719DE2DDF2D80
:100BBC008B2D0130BE003E0883160313DB075B0848
:100BCC00C03E0A168A15F5230A128A1104308316C0
:100BDC0003135B02031CF32DF42D842D0C300A1629
:100BEC008A158E270A128A11831203130719FF2DF7
:100BFC00002E732D0A168A1522250A128A1101302D
:100C0C000A168A1101200A128A110030F6000830E7
:100C1C00F7000A168A15EC250A128A1102300A16F8
:100C2C008A1101200A128A114830F6008030F70030
:100C3C000A168A15EC250A128A11C8300A168A156A
:100C4C0077250A128A1102300A168A1101200A121B
:100C5C008A11031000300318013083160313DB00D4
:100C6C00BE2E87183A2E3B2EBE2EC8300A168A1579
:100C7C0077250A128A110E300A168A158E270A1247
:100C8C008A11B02EFA300A168A1577250A128A11A3
:100C9C009D2E8718522E532E9D2EC8300A168A155B
:100CAC0077250A128A11831603135B08483E8400C9
:100CBC00393083130002031C642E652E732E3030E2
:100CCC0083120313BE00831603135B08483E840093
:100CDC00831203133E088000802E0130831203130D
:100CEC00BE00831603135B08483E84008312031373
:100CFC003E08800702300A168A1101200A128A1156
:100D0C004830F6008030F7000A168A15EC250A12D6
:100D1C008A11831603135B08C03E0A168A15F52345
:100D2C000A128A1183160313D9010314D90D8312E5
:100D3C0003130719A22EA32E4F2E0130BE003E081E
:100D4C0083160313DB075B08C03E0A168A15F523CE
:100D5C000A128A110430831603135B02031CB72E8C
:100D6C00B82E482E0C300A168A158E270A128A11B4
:100D7C00831203130719C32EC42E372E0A168A1595
:100D8C0022250A128A1101300A168A1101200A1230
:100D9C008A117A30F6001B30F7000A168A15EC25FA
:100DAC000A128A1102300A168A1101200A128A11BB
:100DBC000A168A118E220A128A11FA300A168A151C
:100DCC0077250A128A112A2F8718ED2EEE2E2A2F3C
:100DDC00C8300A168A1577250A128A117808083A3B
:100DEC00031DF92EFA2E002F0310003003180130CA
:100DFC00F800062F013083120313BE003E08F807DB
:100E0C000A168A1522250A128A1101300A168A112D
:100E1C0001200A128A117A30F6001B30F7000A16EC
:100E2C008A15EC250A128A1102300A168A11012041
:100E3C000A128A110A168A118E220A128A11831634
:100E4C000313D9010314D90D8312031307192F2F80
:100E5C00302FEA2E0A168A1522250A128A11013021
:100E6C000A168A1101200A128A11CF30F6001C30A2
:100E7C00F7000A168A15EC250A128A1102300A1696
:100E8C008A1101200A128A117008013A031D4F2F92
:100E9C00502F5A2F8C30F6001B30F7000A168A158B
:100EAC00EC250A128A11632F6A30F6001B30F7000A
:100EBC000A168A15EC250A128A11FA300A168A15B6
:100ECC0077250A128A11B82F87186D2F6E2FB82F1D
:100EDC00C8300A168A1577250A128A117008013A49
:100EEC00031D792F7A2F7D2F0230F000802FF00117
:100EFC000314F00D0A168A1522250A128A110130E4
:100F0C000A168A1101200A128A11CF30F6001C3001
:100F1C00F7000A168A15EC250A128A1102300A16F5
:100F2C008A1101200A128A117008013A031D9F2FA1
:100F3C00A02FAA2F8C30F6001B30F7000A168A154A
:100F4C00EC250A128A11B32F6A30F6001B30F70019
:100F5C000A168A15EC250A128A1183160313D90175
:100F6C000314D90D831203130719BD2FBE2F6A2F3B
:100F7C000A168A1522250A128A1101300A168A11BC
:100F8C0001200A128A11B430F6001B30F7000A1641
:100F9C008A15EC250A128A1102300A168A110120D0
:100FAC000A128A110A168A15C6260A128A112A30C2
:100FBC00F6001B30F7000A168A15EC250A128A1166
:100FCC00C8300A168A1577250A128A1102300A16B9
:100FDC008A1101200A128A1183160313DB010314F0
:100FEC00DB0DC1300A168A15F5230A128A110A1272
:100FFC008A15902C41347534643469346F34203440
:10100C005034493444340034E83403343534053432
:10101C00DC34053482340634D0340734A0340F3435
:10102C0046341034003400340C340034173400349B
:10103C0022340034383400344E340034003400345C
:10104C0031343234383430343034003400340034F9
:10105C0000340034003400340034003400340034E4
:10106C00543445345834543420342034203420340F
:10107C0020342034203420342034203420340034E4
:10108C005434493454344C344534203420342034D2
:10109C0020342034203420342034203420340034C4
:1010AC0083160313A40024080A168A117C240A123E
:1010BC008A15831383120313290883160313AB01B8
:1010CC00AB0783120313280883160313AA01AA077C
:1010DC002B0883120313A501A507831603132A08F3
:1010EC0083120313A401A4072030A6000030A7002C
:1010FC000A168A111C220A128A15831383120313EF
:10110C00240883160313A6008312031325088316E1
:10111C000313A7000030A71BFF30A800A900260866
:10112C0083120313B20004300310B20DFF3E031DF3
:10113C009A280310320DFF3A013E831603132A0737
:10114C00A500260883120313B20083160313270885
:10115C0083120313B300831603132808831203139B
:10116C00B40083160313290883120313B500083047
:10117C000310B20DB30DB40DB50DFF3E031DBE280B
:10118C0083160313250883120313B600B70102302C
:10119C00B8000310B60DB70DB80BCF283608B90040
:1011AC003708BA000030BA1BFF30BB00BC0039084E
:1011BC00B2043A08B3043B08B4043C08B50402304A
:1011CC00320483160313A00083120313330883160F
:1011DC000313A10083120313340883160313A20014
:1011EC0083120313350883160313A30000308312F4
:1011FC000313B1003030B0000130AF009130AE00BD
:10120C000A168A11FE230A128A1505300A168A1547
:10121C0077250A128A15003083120313B1008F3020
:10122C00B000E930AF002430AE000A168A11FE235C
:10123C000A128A1505300A168A1577250A128A159C
:10124C0083160313230883120313B10083160313AD
:10125C00220883120313B000831603132108831290
:10126C000313AF0083160313200883120313AE007D
:10127C000A168A11FE230A128A150800F808031DA3
:10128C0048294929542A23300A128A1106200A12A5
:10129C008A1523300A128A1106200A128A150310A5
:1012AC00003003180130F60076084D3E840083139D
:1012BC0000080A128A1106200A128A150130F5005C
:1012CC007508F60704307602031C6D296E295A291D
:1012DC002C300A128A1106200A128A1571080A1279
:1012EC008A1106200A128A152F300A128A1106203A
:1012FC000A128A1572080A128A1106200A128A1515
:10130C002C300A128A1106200A128A15031000309A
:10131C0003180130F6007608523E8400831300084F
:10132C000A128A1106200A128A150130F500750876
:10133C00F60704307602031CA429A52991292C3028
:10134C000A128A1106200A128A150310003003189B
:10135C000130F6007608483E8400831300080A1218
:10136C008A1106200A128A150130F5007508F60755
:10137C0004307602031CC329C429B0292C300A126C
:10138C008A1106200A128A15031000300318013046
:10139C00F6007608433E8400831300080A128A1173
:1013AC0006200A128A150130F5007508F60704307C
:1013BC007602031CE229E329CF292C300A128A1168
:1013CC0006200A128A157008303E0A128A1106206D
:1013DC000A128A152C300A128A1106200A128A1552
:1013EC000310003003180130F6007608DC3E840050
:1013FC00831300080A128A1106200A128A1501307A
:10140C00F5007508F6070A307602031C0E2A0F2A1F
:10141C00FB292C300A128A1106200A128A15031095
:10142C00003003180130F6007608CC3E8400831798
:10143C0000080A128A1106200A128A150130F500DA
:10144C007508F6070F307602031C2D2A2E2A1A2A4D
:10145C002C300A128A1106200A128A150310003049
:10146C0003180130F6007608BC3E84008317000890
:10147C000A128A1106200A128A150130F500750825
:10148C00F6070F307602031C4C2A4D2A392A0A30F3
:10149C000A128A1106200A128A15722A73300A124D
:1014AC008A1106200A128A1574300A128A11062033
:1014BC000A128A156F300A128A1106200A128A152E
:1014CC0070300A128A1106200A128A150A300A1282
:1014DC008A1106200A128A15080041300A168A154C
:1014EC00AA230A128A153A300A168A15AA230A1256
:1014FC008A153F300A168A15AA230A128A150D304E
:10150C000A168A15AA230A128A150310003003182A
:10151C00013083160313AC0083120313181D972A92
:10152C00982A9E2A0A168A15CD250A128A15922AFD
:10153C000A168A15CD250A128A1583120313B000D8
:10154C00831603132C08103E8400831203133008F7
:10155C0083178000831603132C08103E84000008A8
:10156C005D3A031DBA2ABB2ABC2ADB2A2C08103E82
:10157C0084000008013A031DC42AC52AC62ADB2AA6
:10158C004F302C02031CCB2ACC2ACD2ADB2A0A167C
:10159C008A15C0240A128A15013083120313B00075
:1015AC00300883160313AC07922AB130831203134D
:1015BC00AE001C30AF0010300A168A1154210A12EA
:1015CC008A15003A0319EB2AEC2A412B3730831287
:1015DC000313AE001B30AF0010300A168A115421D1
:1015EC000A128A15F9000310003003180130831613
:1015FC000313AC002C08790783120313B0000530D9
:10160C003007840083170008B100831603132C08DD
:10161C00A03E840083120313310883138000013031
:10162C00B000300883160313AC0704302C02031CE3
:10163C00202B212B002B3D3083120313AE001B30CB
:10164C00AF0010300A168A1154210A128A15F900BB
:10165C007908063E84008317000883160313A5003F
:10166C007908083E8400000883120313B000300888
:10167C0083160313A600831603132508260783126B
:10168C000313B000B101B10D8316031320088312AC
:10169C0003133007B2000030031801303107B300D8
:1016AC00831603132108831203133207B40000308E
:1016BC00031801303307B500831603132208831275
:1016CC0003133407B6000030031801303507B70098
:1016DC00831603132308831203133607831603138D
:1016EC00A800003003180130831203133707831648
:1016FC000313A9007108720783120313B000B10120
:10170C00B10D4D083007B20000300318013031071D
:10171C00B3004E083207B400003003180130330711
:10172C00B5004F083407B6000030031801303507F8
:10173C00B7005008360783160313AA0000300318AD
:10174C00013083120313370783160313AB002B08E6
:10175C002906031DB32B2A082806031DB62BB72B0D
:10176C00B92B0030CF2B02300A168A1101200A1235
:10177C008A157B30F6001C30F7000A168A15EC250A
:10178C000A128A15FA300A168A1577250A128A1552
:10179C00013008008718D32BD42B902CC8300A1694
:1017AC008A1577250A128A150E300A168A158E2785
:1017BC000A128A15822CFA300A168A1577250A1213
:1017CC008A15612C8718EB2BEC2B612CC8300A1670
:1017DC008A1577250A128A150530831603135B02C6
:1017EC000318F92BFA2B202C5B08AC3E8400393003
:1017FC0083170002031C032C042C122C3030831290
:10180C000313BE00831603135B08AC3E84008312E3
:10181C0003133E088000482C013083120313BE00D2
:10182C00831603135B08AC3E8400831203133E083B
:10183C008007482C5B08FF3EAC3E84003930831790
:10184C000002031C2A2C2B2C3A2C3030831203134D
:10185C00BE00831603135B08FF3EAC3E840083126C
:10186C0003133E088000482C013083120313BE0082
:10187C00831603135B08FF3EAC3E840083120313F4
:10188C003E08800702300A168A1101200A128A15B6
:10189C000A168A15C6260A128A15831603135B08C4
:1018AC00C03E0A168A15F5230A128A1583160313ED
:1018BC00D9010314D90D831203130719662C672C55
:1018CC00E82B0130BE003E0883160313DB075B08D0
:1018DC00043A031D722C732C7B2C013083120313DE
:1018EC00BE003E0883160313DB075B08C03E0A16D6
:1018FC008A15F5230A128A150630831603135B0228
:10190C00031C892C8A2CE12B0C300A168A158E2785
:10191C000A128A15831203130719952C962CD02BB7
:10192C00831603135908013A031D9D2C9E2CC22DBE
:10193C007108F60000300A168A153C260A128A1520
:10194C007208F60001300A168A153C260A128A150E
:10195C00031000300318013083160313DA005A0801
:10196C004D3E840083130008F6005A08023E0A1606
:10197C008A153C260A128A15013083120313BE0005
:10198C003E0883160313DA0704305A02031CCF2CCB
:10199C00D02CB52C0310003003180130DA005A0893
:1019AC00523E840083130008F6005A08063E0A16BD
:1019BC008A153C260A128A15013083120313BE00C5
:1019CC003E0883160313DA0704305A02031CEF2C6B
:1019DC00F02CD52C0310003003180130DA005A0813
:1019EC00483E840083130008F6005A080A3E0A1683
:1019FC008A153C260A128A15013083120313BE0085
:101A0C003E0883160313DA0704305A02031C0F2D09
:101A1C00102DF52C0310003003180130DA005A0891
:101A2C00DC3E840083130008F6005A080E3E0A16AA
:101A3C008A153C260A128A15013083120313BE0044
:101A4C003E0883160313DA070A305A02031C2F2DA3
:101A5C00302D152D0310003003180130DA005A0810
:101A6C00AC3E840083170008F6005A08183E0A168C
:101A7C008A153C260A128A15013083120313BE0004
:101A8C003E0883160313DA0705305A02031C4F2D48
:101A9C00502D352D7808F6001D300A168A153C2677
:101AAC000A128A157008F6001E300A168A153C2692
:101ABC000A128A1503100030031801308316031321
:101ACC00DA005A08CC3E840083170008F6005A0846
:101ADC001F3E0A168A153C260A128A1501308312FB
:101AEC000313BE003E0883160313DA070F305A02A5
:101AFC00031C812D822D672D03100030031801303B
:101B0C00DA005A08BC3E840083170008F6005A0815
:101B1C002E3E0A168A153C260A128A1501308312AB
:101B2C000313BE003E0883160313DA070F305A0264
:101B3C00031CA12DA22D872D0A168A1522250A1207
:101B4C008A1501300A168A1101200A128A15A3304F
:101B5C00F6001C30F7000A168A15EC250A128A15B5
:101B6C0001300A168A1569260A128A150A168A1174
:101B7C0034260A128A15E12D0A168A1522250A1214
:101B8C008A1501300A168A1101200A128A15D430DE
:101B9C00F6001B30F7000A168A15EC250A128A1576
:101BAC0001300A168A1569260A128A150A168A1134
:101BBC009B250A128A150800031000300318013007
:101BCC008316031386008717071387160712051051
:101BDC0085100511851106309F0007309C0083127B
:101BEC000313051085100511851507308316031393
:101BFC0081008112831203138B160030BE0000305B
:101C0C00BD00E130BC000030BB00031000300318F5
:101C1C000130BF000A168A1118270A128A150A16F3
:101C2C008A1107230A128A1500300A168A15AF2565
:101C3C000A128A15FF3A0319242E252E4C2F003038
:101C4C000A168A15AF250A128A15F10001300A16F8
:101C5C008A15AF250A128A1583120313C200420893
:101C6C00F200031000300318013083120317E50053
:101C7C006508023E0A168A15AF250A128A158312C8
:101C8C000313C2008312031765084D3E84008312B0
:101C9C0003134208831380000130C20042088312F0
:101CAC000317E50704306502031C5D2E5E2E3E2EE5
:101CBC000310003003180130E4006408063E0A16D5
:101CCC008A15AF250A128A1583120313C2008312D8
:101CDC0003176408523E84008312031342088313D3
:101CEC0080000130C200420883120317E40704305D
:101CFC006402031C822E832E632E03100030031803
:101D0C000130E70067080A3E0A168A15AF250A1249
:101D1C008A1583120313C200831203176708483E07
:101D2C008400831203134208831380000130C20025
:101D3C00420883120317E70704306702031CA72E1F
:101D4C00A82E882E0310003003180130E600660818
:101D5C000E3E0A168A15AF250A128A158312031332
:101D6C00C200831203176608DC3E8400831203133F
:101D7C004208831380000130C2004208831203170B
:101D8C00E6070A306602031CCC2ECD2EAD2E0310B6
:101D9C00003003180130E1006108183E0A168A155C
:101DAC00AF250A128A1583120313C200831203177C
:101DBC006108AC3E84008312031342088317800031
:101DCC000130C200420883120317E107053061029B
:101DDC00031CF12EF22ED22E1D300A168A15AF25B9
:101DEC000A128A15F8001E300A168A15AF250A1237
:101DFC008A15F0000310003003180130831203170A
:101E0C00E20062081F3E0A168A15AF250A128A15CF
:101E1C0083120313C200831203176208CC3E8400A2
:101E2C00831203134208831780000130C20042085A
:101E3C0083120317E2070F306202031C262F272F91
:101E4C00072F0310003003180130E30063082E3E07
:101E5C000A168A15AF250A128A1583120313C200BB
:101E6C00831203176308BC3E8400831203134208D9
:101E7C00831780000130C200420883120317E30766
:101E8C000F306302031C4B2F4C2F2C2F01300A16E2
:101E9C008A1101200A128A1501300A168A15692640
:101EAC000A128A150030F6001D30F7000A168A1542
:101EBC00EC250A128A1502300A168A1101200A1220
:101ECC008A154B30F6001C30F7000A168A15EC25E3
:101EDC000A128A1503300A168A1569260A128A15FF
:101EEC000A168A1522250A128A1501300A168A1139
:101EFC0001200A128A156F30F6001C30F7000A1602
:101F0C008A15EC250A128A1502300A168A1101204C
:101F1C000A128A15EF30F6001C30F7000A168A15E3
:101F2C00EC250A128A1501300A168A1569260A123E
:101F3C008A15031000300318013083120317E000D8
:101F4C00EC2F73300A128A1106200A128A1574308B
:101F5C000A128A1106200A128A1561300A128A1195
:101F6C0006200A128A1572300A128A1106200A12E9
:101F7C008A1574300A128A1106200A128A150D303D
:101F8C000A128A1106200A128A150A300A128A11BC
:101F9C0006200A128A150A168A1527270A128A158C
:101FAC005A3083120313AE001B30AF0010300A16E8
:101FBC008A1154210A128A15F9007908031DE72F9A
:101FCC00EC2F83120317E0010314E00D83120317A7
:101FDC006008031DF22FA72F0A168A1134260A1245
:101FEC008A150A128A112C200A128A15F72F0A1246
:041FFC008A1100281E
:10200200F6007608013A031D0728082811288312D2
:102012000313061280300A168A158E270A168A11B1
:102022007608023A031D1628172820288312031364
:102032000612C0300A168A158E270A168A1108005F
:10204200F801F901D70183171030840060300A16B5
:102052008A1562230A168A117430FD001B30FE00B5
:102062002E30FF00703084000A168A1515250A16D4
:102072008A1183135730FD001D30FE003530FF00FA
:10208200433084000A168A1515250A168A11EC3087
:10209200FD001C30FE00DF30FF00DC3084000A1639
:1020A2008A1515250A168A118317DC30FD000830BF
:1020B200FE000A30FF00903084000A168A151525AA
:1020C2000A168A1183010A128A15E22D03100030C2
:1020D2000318013083120313D70085280B1D7228C1
:1020E200732878280130F4007408D7070B11973051
:1020F2005702031C7D287E28852803100030031810
:102102000130D7000130B028871A882889286F2823
:102112002430A1000130A102031D902891288B28B0
:10212200871E94289528962867280830A000031057
:10213200003003180130A2004830A1000130A10292
:10214200031DA428A5289F280310871A0314A20C94
:102152000130A002031DAE28AF289D2822080800E6
:10216200003083120313A1000030A20026082504C8
:102172000319BC28BD28F528A0010314A00DCC2802
:1021820001300310A50DA60DFF3E031DC22801302C
:10219200F4007408A007A61FCF28D028C128013058
:1021A2000310A10DA20DFF3E031DD1282608240213
:1021B200031DDD2825082302031CE028E128E82866
:1021C2002508A3022608031CA403A402211401303B
:1021D2000310A60CA50CFF3E031DE9280130A00246
:1021E200031DF428F528D0282208A401A4072108F9
:1021F200A301A307080083120313A6003F292608A0
:10220200840083170008003A0319082909291B29A9
:102212002708840028080A168A1500240A168A113B
:10222200A4002608840083170008240603191A292B
:102232001B2935292708840028080A168A15002434
:102242000A168A11A400A501A409A509A40A031962
:10225200A50A26088400831700082407A70025087A
:102262000318250AA80053290130A4002408A60750
:102272000130A7070318A80A0030A8070130A902F5
:102282000030031CAA03AA02FF302A06031D4B29B1
:10229200FF302906031D4E294F2900290030A700CF
:1022A2000030A800080083120313AD009B292F08F9
:1022B200A801A8072E08A701A7072F08A301A307B3
:1022C2002E08A201A2070A168A1559270A168A1190
:1022D2008313831203132308AA01AA072208A90160
:1022E200A9072D080A168A11FC200A168A118313DF
:1022F2008312031328082704031D802981298329B7
:102302002D08B2292E0884002F080A168A150024E7
:102312000A168A11AB00AC012B08F5002C08F60056
:102322002D08013E0A168A1549250A168A118312BA
:102332000313AD000030AB000030AC002D082C06BA
:10234200031DA5292D082B060319A829A929B1299E
:102352002D08840083178008031DB029B12958294C
:1023620000300800003083120313A3000030A200E3
:102372000030A1000030A0002C082B042A042904FC
:102382000319C429C529132AA4010314A40DD629AB
:102392000130F4000310A90DAA0DAB0DAC0DF40B26
:1023A200CB290130F4007408A407AC1FD929DA291B
:1023B200C9290130F4000310A00DA10DA20DA30D37
:1023C200F40BDC292C082802031DF1292B08270213
:1023D200031DF1292A082602031DF12929082502D5
:1023E200031CF429F529042A2908A5022A08031C3A
:1023F2002A0FA6022B08031C2B0FA7022C08031C72
:102402002C0FA802201401300310AC0CAB0CAA0C48
:10241200A90CFF3E031D052A0130A402031D122A46
:10242200132ADA292308A8002208A7002108A600F7
:102432002008A500080003100030031801308312A1
:102442000313A100A71F262A272A2F2AA609A709B4
:10245200A60A0319A70AA1010314A10DA51F322A76
:10246200332A3C2AA409A509A40A0319A50A0130A2
:10247200F4007408A1060030A2000030A30027086F
:1024820026040319452A462A7E2AA0010314A00D18
:10249200552A01300310A60DA70DFF3E031D4B2A3E
:1024A2000130F4007408A007A71F582A592A4A2AA3
:1024B20001300310A20DA30DFF3E031D5A2A270867
:1024C2002502031D662A26082402031C692A6A2A99
:1024D200712A2608A4022708031CA503A5022214B8
:1024E20001300310A70CA60CFF3E031D722A013017
:1024F200A002031D7D2A7E2A592A2108031D822A51
:10250200872AA209A309A20A0319A30A2308A5017B
:10251200A5072208A401A4070800E92A3230F60020
:102522001B30F7000A168A15EC250A168A11062BAB
:102532004430F6001B30F7000A168A15EC250A16FD
:102542008A11062B0B30F6001C30F7000A168A158A
:10255200EC250A168A11062BDF30F6001B30F70035
:102562000A168A15EC250A168A11062BC930F600BE
:102572001B30F7000A168A15EC250A168A11062B5B
:102582004030F6001C30F7000A168A15EC250A16B0
:102592008A11062BEA30F6001B30F7000A168A155C
:1025A200EC250A168A11062BBE30F6001B30F70006
:1025B2000A168A15EC250A168A11062B2130F60016
:1025C2001C30F7000A168A15EC250A168A11062B0A
:1025D2007808003A03198F2A013A0319992A033A13
:1025E2000319A32A013A0319AD2A073A0319B72A94
:1025F200013A0319C12A033A0319CB2A013A0319F2
:10260200D52A0F3A0319DF2A062B08008312031377
:1026120006128612C330A600CD30A500A50B0F2BE3
:10262200A60B0F2B831203130608F039033886001A
:1026320086160730A6007D30A500A50B1E2BA60B23
:102642001E2B8312031386128230A600DD30A500F2
:10265200A50B292BA60B292B2E2B831203138616CF
:102662000730A6007D30A500A50B352BA60B352B18
:10267200831203138612F930A5006400A50B3E2BCA
:10268200422B64008312031386160730A6007D30A6
:10269200A500A50B4A2BA60B4A2B83120313861205
:1026A200F930A5006400A50B532B572B640083124D
:1026B20003130608F0390238860086160730A60092
:1026C2007D30A500A50B632BA60B632B831203138E
:1026D200861210300A168A158E270A168A110C30B5
:1026E2000A168A158E270A168A110A168A152225B3
:1026F2000A168A1106300A168A158E270A168A11B8
:10270200080041300A168A15AA230A168A113A309D
:102712000A168A15AA230A168A1153300A168A152E
:10272200AA230A168A1152300A168A15AA230A16F1
:102732008A1146300A168A15AA230A168A1103102C
:1027420000300318013083120313B90039084D3EDB
:102752008400831300080A168A15AA230A168A110E
:10276200013083120313B8003808B9070430390264
:10277200031CBC2BBD2BA72B2C300A168A15AA23AF
:102782000A168A1102307802031CC82BC92BDD2BD2
:102792002D300A168A15AA230A168A1178082F3EA6
:1027A2000A168A15AA230A168A110D300A168A15E4
:1027B200AA230A168A11FD2B71080A168A15AA2362
:1027C2000A168A110D300A168A15AA230A168A11C8
:1027D200FA300A168A1577250A168A11F32B8223F4
:1027E2000A168A110A128A1573220A168A110038E9
:1027F200031DFC2BFD2BF02B080018308312031352
:10280200A9000030AD000030AC000030AB00013058
:10281200AA002A08A4002B08A5002C08A6002D084F
:10282200A7002908FF3E013E1B2C0310A40DA50D95
:10283200A60DA70DFF3E031D162C2708AD00260886
:10284200AC002508AB002408AA002A082E05AA001D
:102852002B082F05AB002C083005AC002D083105E4
:10286200AD002A08A4002B08A5002C08A6002D08FC
:10287200A7002908FF3E013EA800442C270DA70C03
:10288200A60CA50CA40CA80B3F2C2708AD0026080B
:10289200AC002508AB002408AA002A18512C552C9C
:1028A200831203130514582C8312031305100130ED
:1028B2000A168A1577250A168A11831203138514BC
:1028C20001300A168A1577250A168A118312031314
:1028D20085100130A902A908031D702C712C022C4D
:1028E200051501300A168A1577250A168A118312F0
:1028F20003130511080083120313A700842C01306F
:10290200F6007608A7072708840083170008203AF4
:1029120003198C2C8D2C802C270884000008093A7E
:102922000319942C952C802C0030A5000030A600B1
:102932000310003003180130A400270884000008A7
:102942002D3A031DA52CA62CAF2C0130F6007608DB
:10295200A4070130F6007608A707E32C27088400B5
:1029620000082B3A031DB62CB72CE32C0130F600DD
:102972007608A707E32C831203132608A101A107F7
:102982002508A001A0070A30A2000030A3000A1601
:102992008A1511260A168A11831203132708840046
:1029A2008317000883132007F60021080318210A61
:1029B200F7007608D03EA50077080318013EFF3ED7
:1029C200A600B72C27088400831700080A168A1568
:1029D20060250A168A110318EF2CF02CBC2C8312E6
:1029E20003132408031DF62C022D2509F6002609DF
:1029F200F700F60A0319F70A7608A8007708A90073
:102A0200082D2608A901A9072508A801A80708007A
:102A1200831203132D08A801A8072C08A701A707F2
:102A22002808A401A4072708A301A3072F08A601C9
:102A3200A6072E08A501A5070A168A11B1200A16B3
:102A42008A118313831203132408A801A8072308F9
:102A5200A701A7070130AA070318AB0A0030AB078A
:102A620028082704031D362D372D112D03102A089F
:102A7200840083172B1C831300300318013080005D
:102A82000130AA020030031CAB03AB022D08A101E6
:102A9200A1072C08A001A0072F08A301A3072E0855
:102AA200A201A2070A168A15C7270A168A118313DA
:102AB200831203132008A9002D08A401A4072C08DF
:102AC200A301A3072F08A601A6072E08A501A507A3
:102AD2000A168A11B1200A168A118313831203136C
:102AE2002408AD01AD072308AC01AC070A30290266
:102AF200031C7C2D7D2D812D0730F6007608A90759
:102B02003030F6007608A9072908F6002A08840062
:102B120083172B1C8313760880000130AA02003031
:102B2200031CAB03AB022D082C04031D992D9A2D17
:102B3200472D08000A168A1522250A168A11013025
:102B42000A168A1101200A168A110A168A15912577
:102B52000A168A11CA2D3230F6001B30F7000A1607
:102B62008A15EC250A168A11D22D4430F6001B3044
:102B7200F7000A168A15EC250A168A11D22D4B3057
:102B8200F6001B30F7000A168A15EC250A168A1180
:102B9200D22D7808003A0319AC2D013A0319B62D4B
:102BA200C02D02300A168A1101200A168A11F8086D
:102BB200031DDC2DDD2D0F2E4D30F6008030F70089
:102BC2000A168A15EC250A168A1120300A168A1569
:102BD2002C240A168A1171080A168A152C240A1640
:102BE2008A112F300A168A152C240A168A117208A5
:102BF2000A168A152C240A168A1120300A168A15FA
:102C02002C240A168A1120300A168A152C240A1638
:102C12008A110A168A15C6260A168A117808013AF6
:102C2200031D142E152E232E1630F6001C30F7002D
:102C32000A168A15EC250A168A110A168A15C6265C
:102C42000A168A1102307802031C282E292E332EEE
:102C52000A168A118E220A168A110A168A15C626A1
:102C62000A168A1108000A168A1522250A168A11DE
:102C720001300A168A1101200A168A115730F6000D
:102C82001C30F7000A168A15EC250A168A11023042
:102C92000A168A1101200A168A118330F6001B30A7
:102CA200F7000A168A15EC250A168A1173300A12E1
:102CB2008A1106200A168A1174300A128A11062015
:102CC2000A168A116F300A128A1106200A168A1110
:102CD20070300A128A1106200A168A110A300A1264
:102CE2008A1106200A168A117808013A031D7A2EE3
:102CF2007B2E7F2E831203138511822E83120313E0
:102D0200851501300A168A1569260A168A11F808ED
:102D1200031D8C2E8D2E922E0A168A1182230A16DC
:102D22008A1102307802031C972E982E9D2E0A16C5
:102D32008A1182230A168A110A168A1522250A1670
:102D42008A1101300A168A1101200A168A11573097
:102D5200F6001C30F7000A168A15EC250A168A11AD
:102D620002300A168A1101200A168A110B30F60067
:102D72001D30F7000A168A15EC250A168A11013051
:102D82000A168A1569260A168A11031000300318DA
:102D9200013083120313BD00062F0A128A15442143
:102DA2000A168A110A168A1527270A168A11F8089E
:102DB200031DDC2EDD2EF42E963083120313AE009B
:102DC2001B30AF0010300A168A1154210A168A11DC
:102DD200F9007908031DEE2E062F83120313BD019D
:102DE2000314BD0D062F523083120313AE001B30A5
:102DF200AF0010300A168A1154210A168A11F900FE
:102E02007908031D052F062FEE2E831203133D08AA
:102E1200031D0C2FCE2EAC300A128A1556200A162C
:102E22008A110A168A119B250A168A110800831232
:102E320003133B08AD003C08AE003D08AF003E085E
:102E4200B00004300310AD0DAE0DAF0DB00DFF3E5E
:102E5200031D232F3008B8002F08B7002E08B60034
:102E62002D08B5000130A8003130A7002D30A60092
:102E72000030A5003808AC003708AB003608AA00BD
:102E82003508A9000A168A11B3210A168A1183137A
:102E9200831203132508FF3EB90026080318013EDA
:102EA200FF3EBA003A08803AAD0081302D02031D80
:102EB2005C2F0030390203185F2F602F662F8312B8
:102EC2000313BA1F652F662FB92F831203133B0812
:102ED200AD003C08AE003D08AF003E08B000063031
:102EE2000310AD0DAE0DAF0DB00DFF3E031D712FE2
:102EF2003008B8002F08B7002E08B6002D08B5001C
:102F02000130A8003130A7002D30A6000030A50006
:102F12003808AC003708AB003608AA003508A9000B
:102F22000A168A11B3210A168A1183138312031314
:102F32002508FF3EB90026080318013EFF3EBA00ED
:102F42003A08803AAD0081302D02031DAA2F0030CD
:102F520039020318AD2FAE2FFF2F83120313BA1FAE
:102F6200B32FB42FB52FFF2F831603131811BC2FC5
:102F720083160313181583120313390883160313D8
:102F820099001812831203139817181698128316B1
:102F920003130C128C12003083120313B1000030A1
:102FA200B2003F08031DD62FDA2F0130B1000030E6
:102FB200B2003118DD2FE12F831603131817E42F07
:102FC200831603131813003083120313B300003067
:102FD200B4003F08031DEE2FF22F0130B300003082
:102FE200B4003318F52FF92F831203131817FC2F8F
:0E2FF200831203131813831603139816080096
:103654004D3448347A340034013431343234003453
:103664004C34693476346534003453345234203461
:103674003D342034003446344534433420343D341E
:103684002034003453344434633461347234643445
:1036940000345434733474344D346F34643400342B
:1036A400533474346F347034703465346434003497
:1036B400733474346134723474346534643400346F
:1036C40064008001840A0406031900340406632B91
:1036D40053342D3456346934643465346F340034CF
:1036E400533465347434203446344534433400341C
:1036F4005434783420344D346F3464346534733442
:10370400003444346934673469344C34693474346F
:103714006534003443346F346D3470346F3473342F
:10372400693474346534003443346F346E3466342D
:103734006934673420346F346B340034563469345C
:10374400643465346F3420345034493444340034A0
:10375400F400831203130C1EB02BB12BAB2B740893
:103764009900080046347234653471347534653414
:103774006E3463347934003441344C345434323448
:103784002034203420342034203420340034553480
:103794005334423420342034203420342034203430
:1037A400203400344E346F3420344334683461346C
:1037B4006E3467346534733400344C3453344234D7
:1037C4002034203420342034203420342034003475
:1037D40041344C34543431342034203420342034B3
:1037E400203420340034F6008312031306127608C2
:1037F4000A168A158E270A168A150800FE00FE1F6F
:10380400082C83137E188317000808008A00040814
:1038140082004334613472347234693465347234EE
:10382400203420342034003453344434203453348A
:1038340052342F3446344534433420340034413434
:103844004C34543434342034203420342034203460
:1038540020340034F60083120313061676080A1681
:103864008A158E270A168A150800433461346C348D
:103874006C347334693467346E34003449346E34D0
:103884002034503468346134733465342034203443
:10389400003443346F346E34743472346F346C34A3
:1038A4006C34653472342E34003443346F346E34E3
:1038B4006634693467347534723469346E34673409
:1038C4000034533479346D3462346F346C342034BE
:1038D4005234613474346534003450346C34653497
:1038E4006134733465342034573461346934743446
:1038F400003444346934673469344C34693474347E
:10390400653420342A342A342A340034503472344E
:103914006F346734723461346D3420345434653414
:10392400783474340034503472346F3467347234FD
:1039340061346D3420345434693474346C346534F3
:10394400003453346134763465346434203443347D
:10395400683461346E3467346534733400345B34F2
:1039640041343A34313430343034203456346534CC
:103974007234733469346F346E3400348312031335
:10398400981CC52CC62CCE2C18121A08F4001A0840
:10399400F4001A08F400181608005034563452344F
:1039A400203456346934643465346F3420344934F3
:1039B4006E3470347534743400344D3430344434DB
:1039C400543453342034203420342034203400340C
:1039D400303432343534363400344D344B343834A6
:1039E400303438342034733474346134723474347D
:1039F4002034753470342E342E3400344434693415
:103A0400673469344C3469347434653420342B3469
:103A140020344D344B3438343034383400347E0858
:103A24008A007F08820011250A168A158000840AFC
:103A340004087D0603190034FF0A0319FE0A152D34
:103A440083120313061201300A168A158E270A16EA
:103A54008A150D30F700FB30F600F60B2F2DF70B0F
:103A64002F2D342D080034343034393435340034B7
:103A74003034323435343734003434343034303440
:103A84003034003430343234353436340034F400D5
:103A940074088400831700087506031D522D532DE6
:103AA400552D74085F2D740884000130F4078008D4
:103AB400031D5D2D5E2D4A2D00300800F500031016
:103AC400003003180130F4003A30750203186B2DEE
:103AD4006C2D752D30307502031C712D722D752DD2
:103AE400F4010314F40D740C0800F6000310003004
:103AF40003180130F7008A2D0730F5007D30F400FB
:103B0400F40B822DF50B822D0130F4007408F707B5
:103B140076087702031C8F2D902D7E2D080003104C
:103B240000300318013083120313A5002508DC3E7E
:103B34008400831300080A168A152C240A168A1591
:103B44000130F700770883120313A5070A30250212
:103B5400031CAD2DAE2D982D0800F7008316031716
:103B64008C18B52DB62DB02D7708831203178D0050
:103B74003F30F4007408831603178C050C140310EB
:103B84000C180314003003180130F500F6018312F9
:103B940003170C0808000310003003180130F50067
:103BA400E42D831203130B1DD82DD92DDE2D0130E6
:103BB400F4007408F5070B118C1EE12DE22DE42DA1
:103BC4001A08EB2D4C307502031CE92DEA2DD32D78
:103BD40001300800831203130616032E76088400AE
:103BE40077080A168A1500240A168A150A168A15F1
:103BF4008E270A168A150130F6070318F70A0030D3
:103C0400F7077608840077080A168A1500240A162E
:103C14008A150038031D0F2E102EF02D08000030D9
:103C2400F4000030F50083120313201C1A2E1B2EFF
:103C3400212E2208F4070318F50A2308F50701309A
:103C44000310A20DA30DFF3E031D222E013003100D
:103C5400A10CA00CFF3E031D292E21082004031DE6
:103C6400342E352E152E7508A101A1077408A00164
:103C7400A0070800F500831603178C18422E432E64
:103C84003D2E7508831203178D0076088C003F3093
:103C9400F4007408831603178C05831203130310AE
:103CA4008B1F552E562E572E03148B138316031772
:103CB4000C1555308D00AA308D008C140C11831214
:103CC4000313031C662E672E682E8B1708008312BD
:103CD4000313A4000310003003180130A500902E34
:103CE4000310003003180130A6004130F500EE3017
:103CF400F400F40B7B2EF50B7B2E64000130F400F2
:103D0400740883120313A60764302602031C8B2E47
:103D14008C2E772E0130F4007408A50724082502A0
:103D2400031C952E962E722E08008312031320086E
:103D340084008317211C83130008F40022088400E4
:103D44000130A20783130003FF3A7407F600F60854
:103D5400031DAD2EAE2EC02E2108F5002008F40060
:103D64000130A0070318A10A740884008317751C86
:103D740083138008031DBF2EC02E972E7608A00043
:103D8400A101A01BA1030800831603172C080A161F
:103D94008A152C240A168A15831603172D080A1669
:103DA4008A152C240A168A15831603172E080A1658
:103DB4008A152C240A168A15831603172F080A1647
:103DC4008A152C240A168A152E300A168A152C24D4
:103DD4000A168A158316031730080A168A152C2426
:103DE4000A168A15080083120313B51FFA2EFB2E38
:103DF4000F2F2D30F700320884008317331C8313F0
:103E0400770880000130B2070318B30A0030B30703
:103E1400B409B509B40A0319B50A3308AB01AB07F1
:103E24003208AA01AA073508AD01AD073408AC0170
:103E3400AC073708AF01AF073608AE01AE070A1664
:103E44008A1109250A168A15080003100030031880
:103E54000130F6000A168A1167200A168A15F50041
:103E64007608103E84007508831780007608103E9B
:103E7400840000082E3A031D402F412F422F582F53
:103E84007608103E84000008013A031D4A2F4B2F88
:103E94004C2F582F4F307602031C512F522F532F83
:103EA400582F0130F5007508F6072C2F08008312EF
:103EB40003132308A101A1072208A001A0072108D8
:103EC400F5002008F4000130A0070318A10A7408C3
:103ED400840075080A168A1500240A168A15003803
:103EE400031D752F762F612F2209F4002309F50095
:103EF400F40A0319F50A20087407F60021080318C8
:103F0400210A7507F7007608FF3EA2007708031818
:103F1400013EFF3EA300080083120313A4004230B5
:103F2400F400F40B932F6400831203132408F400A9
:103F340004300310F40CFF3E031D9B2F74080F394B
:103F4400F5000608F0397504860086160730F5007A
:103F54007D30F400F40BAC2FF50BAC2F831203135C
:103F6400861224080F39F4000608F0397404860018
:103F740086160730F5007D30F400F40BBF2FF50BE7
:103F8400BF2F83120313861208008312031323081E
:103F940022040319CE2FCF2FFF2FF5010314F50DA3
:103FA400DE2F01300310A20DA30DFF3E031DD42FFD
:103FB4000130F4007408F507A31FE12FE22FD32F7B
:103FC40023082102031DE82F22082002031CEB2FE3
:103FD400EC2FF22F2208A0022308031CA103A10244
:103FE40001300310A30CA20CFF3E031DF32F01307C
:0C3FF400F502031DFE2FFF2FE22F080036
:02400E00723FFF
:00000001FF
